:020000040800F2
:10000000B00E00203102000845290008BD27000875
:1000100041290008C50600086555000800000000D9
:100020000000000000000000000000005D29000842
:10003000C9060008000000005929000861290008CD
:100040004B0200084B0200084B0200084B0200085C
:100050004B0200084B0200084B0200084B0200084C
:100060004B0200084B0200084B0200084B0200083C
:100070004B0200084B0200084B0200084B0200082C
:100080004B0200084B0200084B0200084B0200081C
:100090004B0200084B0200084B0200084B0200080C
:1000A0004B0200084B0200084B0200084B020008FC
:1000B0004B0200084B0200084B0200084B020008EC
:1000C0004B0200084B0200084B0200084B020008DC
:1000D0004B0200084B0200084B0200084B020008CC
:1000E0004B0200084B0200084B0200084B020008BC
:1000F0004B0200084B0200084B0200084B020008AC
:100100004B0200084B0200084B0200084B0200089B
:100110004B0200084B0200084B0200084B0200088B
:100120004B0200084B0200084B0200084B0200087B
:100130004B0200084B0200084B0200084B0200086B
:100140004B0200084B0200084B0200084D29000832
:100150004B0200084B0200084B0200084B0200084B
:100160004B0200084B0200084B0200084B0200083B
:100170004B0200084B0200084B0200080000000080
:100180004B0200084B02000800F002F800F040F8B3
:100190000AA090E8000C82448344AAF10107DA45E2
:1001A00001D100F035F8AFF2090EBAE80F0013F0F4
:1001B000010F18BFFB1A43F001031847BC5600009B
:1001C000DC560000103A24BF78C878C1FAD852072C
:1001D00024BF30C830C144BF04680C6070470000C1
:1001E0000023002400250026103A28BF78C1FBD840
:1001F000520728BF30C148BF0B6070471FB505F0DC
:100200001FFB9DE8030000F04FF91FBD10B510BDA6
:1002100000F0D4F91146FFF7F1FF05F0A5F900F061
:10022000F2F903B4FFF7F2FF03BC00F023FA000079
:100230000948804709480047FEE7FEE7FEE7FEE77A
:10024000FEE7FEE7FEE7FEE7FEE7FEE704480549B6
:10025000054A064B70470000152A0008890100086E
:10026000B0080020B00E0020B00A0020B00A002024
:1002700070B5A0FB0140B4F1805170F1000024BFC3
:10028000002070BD204600F03EF905001CBF21464D
:1002900000F0A1F8284670BD70B50446051F00F0B7
:1002A000E7F80068002C14BF446870BD002C18BF2C
:1002B000AC423CBF20466468F8D301680A18AA42E1
:1002C00018BF456003D12A680546114401602868BB
:1002D0004119A1421CBF6C6070BD616869602168F2
:1002E0000844286070BD53EA020C00F069802DE9D3
:1002F000F04B4FF00006002B1FBFB3FA83F503FA53
:1003000005F424FA05F65E4012BF1643B2FA82F5F0
:1003100002FA05F4C5F120051EBF22FA05FC44EAE5
:100320000C04203556EA044C4FEA144418BF641CF0
:100330004FF000084FF00009904271EB030C39D3E5
:10034000002919BFB1FA81F701FA07F6B0FA80F770
:1003500000FA07F6C7F120071EBF20FA07FC46EA9D
:100360000C062037B6FBF4FCA7EB0507103F07F09F
:100370001F0BCBF120062CFA06F60CFA0BFB44BF40
:10038000B3460026202FA4BF5E464FF0000B5BEA69
:10039000060C08BF4FF0010B19EB0B0948EB0608E0
:1003A000ABFB027C06FB02CC0BFB03CCC01B71EB4E
:1003B0000C01C1E70B46024641464846BDE8F08BBA
:1003C00013B5084318BF4FF0FF300146AFF300806C
:1003D000BDE81C4070474FF000020429C0F01280B5
:1003E00010F0030C00F01B80CCF1040CBCF1020FE8
:1003F00018BF00F8012BA8BF20F8022BA1EB0C01BD
:1004000000F00DB85FEAC17C24BF00F8012B00F8B2
:10041000012B48BF00F8012B70474FF0000200B5D8
:10042000134694469646203922BFA0E80C50A0E817
:100430000C50B1F12001BFF4F7AF090728BFA0E8C5
:100440000C5048BF0CC05DF804EB890028BF40F891
:10045000042B08BF704748BF20F8022B11F0804FD3
:1004600018BF00F8012B70477047704770470000B5
:100470000048704738000020704770477047704749
:1004800038B504460A4600206946AFF300800028CC
:1004900008BF38BD02460099204600F06EF80120E2
:1004A00038BD012000F083B8F8B5AFF300800546F1
:1004B00000200C46102000BF0646A819A0420DD906
:1004C000324669460020AFF30080070008BF00F005
:1004D0006EF80098A04218BF0546C419FFF7C8FF80
:1004E00005600746F01D20F007004619284600F079
:1004F0003DF8B44208BFF8BDA21B31463868BDE8DC
:10050000F84000F03AB870B50646FFF7B1FF05684D
:1005100006F10B0020F00704B4429CBF002070BD20
:100520002B466A68BAB11068A04210D304F10801E2
:1005300088423CBF5068586007D351681019416029
:100540001168091B016058601460101D70BD1346CE
:100550005268002AE7D121462846FFF791FF00287C
:10056000DED170BD004870473000002000210160DE
:10057000C0E90110704710207047034640688C4660
:10058000002818BF88423CBF03464068F8D318686B
:100590001844884207D00CF1030020F00700001D2A
:1005A000411A521A0146081D0A60FFF775BE10B5C0
:1005B00000F038F8BDE8104000F02EB87546FFF79F
:1005C000D1FFAE4605006946534620F00700854638
:1005D00018B020B5FFF73AFEBDE820404FF0000606
:1005E0004FF000074FF000084FF0000BAC46ACE8AE
:1005F000C009ACE8C009ACE8C009ACE8C00921F00A
:1006000007018D46704710B50446AFF300802046C1
:10061000BDE81040FFF705BE002801D000F02AB861
:100620007047000010B5012805D0002103A000F09C
:1006300028F8012010BD09A1F8E7000053494752EE
:10064000544D454D3A204F7574206F6620686561A2
:1006500070206D656D6F7279000000003A2048656A
:100660006170206D656D6F727920636F7272757045
:100670007465640001491820ABBEFEE72600020045
:10068000704770B505460C460A2000E06D1C00F06E
:1006900011F835B128780028F8D102E0641C00F088
:1006A00009F814B120780028F8D1BDE870400A207C
:1006B000AFF3008008B569468DF800000320ABBE9B
:1006C00008BD0000FEE7000070470000EFF3108057
:1006D00072B600BFFEE70000B0B5044600F0EAF8CD
:1006E000054640F20000C2F200000078611C18BF0D
:1006F000044400BF00F0DEF8401BA042FAD3B0BDB6
:100700002DE9F04F82B000F13E4241F6004502F182
:10071000FF77C4F20205082243F6004E4FEAB726DF
:10072000A84208BF0722C4F2010E072E38BF4FEAC5
:10073000B7220125002600274FF00008009208E0AC
:1007400008F101080437B8F1100F06F1020600F0B5
:10075000A7800C6805FA08F914EA090FF0D0D1F85F
:1007600004B003220BF0030CACF10104B240012CE5
:100770006FEA020A10D88268CC6802EA0A02B44022
:10078000224382604268CBF3001422EA090204FA91
:1007900008F42243426005E0BCF1030F02D14FF0A0
:1007A000030C20E0C2688C6802EA0A02B4402243CB
:1007B000BCF1020FC26016D16FF0030202EA5802C8
:1007C0000244D2F820C007F01C050F230C69AB408F
:1007D0002CEA030304FA05F52B431362D1F804B0A5
:1007E00001250BF0030C02680CFA06F302EA0A0278
:1007F0001A431BF4403F0260A2D0002243F6440398
:100800000192C4F202031A684FF6084C42F4804287
:100810001A601A68CFF6FF7C02F480420192019AB6
:1008200028F00302724452F80C3007F00C050F2434
:10083000AC40A343009C04FA05F52B4342F80C306E
:10084000DEF808204B6842EA090543F60C4CDC024E
:1008500058BF22EA0905CEF80850C4F2010CDCF8B2
:1008600000209C0242EA090558BF22EA0905CCF89B
:100870000050DEF804209C0342EA090558BF22EA32
:100880000905CEF80450DEF80020DB0342EA090532
:1008900058BF22EA0905CEF80050012550E700BFF5
:1008A00002B0BDE8F08F0000002A08BF0904816192
:1008B0007047000040F6AC00C2F2000000687047CC
:1008C000D0F8000302F0C0BFD0F8000302F0C8BFA8
:1008D000006803F075BD0000006803F075BD0000FE
:1008E0002C2211FB020090F8600070472C2211FBB3
:1008F0000200006D7047000010B5044690F8F80241
:10090000012804BF022010BD2068012284F8F822CB
:1009100003F06AFD002084F8F80210BDF0B583B042
:10092000044690F8F802012802D1022003B0F0BD7D
:10093000012084F8F8022C2011FB004602F07F0011
:1009400086F83A00D009DDF828C0DDE9085E86F8AF
:100950003B002068002786F83D7086F83830A6F8FE
:1009600040C086F8391086F83FE086F83C50CDE963
:10097000005ECDF808C003F0E7FD84F8F87203B01C
:10098000F0BD0000704700002DE9F041DDE906648C
:100990008C462C21DDE908E51CFB0101002E81F8C5
:1009A0003B2081F83F3006BF81F83D5003250225EA
:1009B00001F8425F032B4FF0000827D80027DFE83B
:1009C00003F00B24030300BFB2B12C221CFB020274
:1009D00092F8542015E000BF002A08BF012E15D15F
:1009E0002C221CFB0202BEF1000F02F1550221D0A5
:1009F00012780ABB002708E02C221CFB020292F8A6
:100A00005520002A18BF012257000F702C210368BF
:100A10001CFB0105027C05F138016C64A5F86080BF
:100A2000C5E913E8184685F839C0BDE8F04103F080
:100A30001BBE00BF012313700227E6E72DE9F04F2C
:100A400083B006680446304603F0CAFC012840F033
:100A50003783206804F04AF8002800F031832068CA
:100A600004F044F801462068890244BF4FF40011A5
:100A7000416104F03BF801462068C90244BF4FF4CD
:100A80008011416104F032F801462068490144BFF9
:100A90004FF08061416104F029F801462068890720
:100AA00044BF0221416104F021F8800015D520687F
:100AB0004FF000514161D6F84004C0070DD13046D7
:100AC000102103F021FC304603F0C2FB2068012115
:100AD00003F0F0FF2046FFF7F7FE206804F006F869
:100AE000C0011AD52568D5F840040290D5F8400415
:100AF0000190019820F02E000190029880074DD4BB
:100B00000298000757D40298800603D5019840F058
:100B1000200001900198C5F84004206803F0E6FF2A
:100B2000000707D4206803F0E1FF2568C0060DD454
:100B300092E000BF204600F08FFB20680821416151
:100B400003F0D4FF2568C00640F18680A86920F034
:100B50001000A861286A00F4F011B1F5802F76D159
:100B6000C0F30A19B9F1000F71D000F00F082C2062
:100B700018FB0047BA465AF8441F002967D057F8B7
:100B8000500F57F8042C4844904233D92C2018FBBE
:100B90000040042180F8601059E000BF0298C007AF
:100BA00002D02046FFF78CFE019840F00200019031
:100BB00002980007A7D5019840F00800019002981C
:100BC000400707D4204600F03BFB029880069DD4E6
:100BD000A0E700BFA069022840F07682029800F4E6
:100BE000C0212068B1F5802F14BF0121022103F03C
:100BF00061FF70E228464A4603F07CFFDAF8000005
:100C000039684844CAF8000001EB09002C2238601A
:100C100005EB481018FB0242D0F81015B2F840203E
:100C2000914514D10022C1F6F87211400FD000F5A1
:100C3000A0600168022262F39F7101602C2018FB02
:100C4000004090F8541081F0010180F8541025689C
:100C5000A86940F01000A861284603F047FF800112
:100C600040F12E82206803F0FBFCA168002900F00F
:100C70002382054606F5A0674FF0000B0FE000BF8A
:100C80004FF40071C8F80010314603F0ADFBA068C6
:100C90000BF1010B834507F1200780F00D820BF06B
:100CA0000F0025FA00F0C007F1D0396820685FFA1C
:100CB0008BF600EB461202F5A06A02F5A168D2F8A5
:100CC0000825090402F0040142D400294FF02C0247
:100CD0005AD1D8F80010890668D4D8F800108905D0
:100CE000CED4D8F80010C90740F01881D8F8001009
:100CF000490600F13781D8F80010090700F1688132
:100D0000D8F80010C90600F16B81D8F80010090668
:100D100000F17C81D8F80010490500F18D81D8F8E8
:100D200000008007B3D52C2016FB004090F861101E
:100D30000139072900F24281DFE811F09A014001F0
:100D4000080008003601C4004001C400022133E15C
:100D50004FF02C0911BBD8F80010C90538D4D8F8C9
:100D60000010890600F19080D8F80010090700F102
:100D7000E780D8F80010490500F10481D8F8001088
:100D8000090631D580210AE00421C8F8001016FBBD
:100D90000241062281F8612076E700BF0421C8F8ED
:100DA000001016FB0941062219E000BF2021C8F8F7
:100DB000001016FB02410A4612F83D3F012B7FF45A
:100DC00066AF00231370022281F860205CE700BF49
:100DD0004FF48071C8F8001016FB0941072281F812
:100DE0006120314603F000FBD8F80000800552D4A2
:100DF000D8F80000C0071DD1D8F80000800753D4F0
:100E0000D8F80000C0067FF542AF2C2016FB00404A
:100E100090F83F10002918BF022940F0BB802169DB
:100E200000294FF00001C16540F0BC80032180F82B
:100E30006110B3E0206940B116FB0940816CDAF81B
:100E400010206FF3DF42891A01652C2016FB004940
:100E50000121002089F86110C9F85C00C8F8001071
:100E600099F83F0003280AD8DFE800F0023602367E
:100E70002068314603F0B8FA1020C8F80000206955
:100E800001283AD042E000BF2020C8F80000D8F87E
:100E900000008005ACD52068314603F0A5FA4FF478
:100EA0000070C8F80000F2E616FB094090F86110E7
:100EB0000139072900F28280DFE801F078804A805A
:100EC00076047A04014651F85C2F0132032A0A6045
:100ED0003ED300220A606EE0DAF80000314640F0AE
:100EE0000050CAF80000012089F860002046012265
:100EF000FFF748FD2069012808D1D9F84800B9F862
:100F00004010B0FBF1F0C0073FF4C1AE99F85400B7
:100F100080F0010089F85400B9E600BF16FB0241D9
:100F20000022CA65D8F80020520605D5012281F8B2
:100F30003D204022C8F800200122C8F8002029E7FF
:100F40000821C8F8001016FB0941052247E700BF39
:100F5000022280F86020DAF8001062F39F71CAF86C
:100F600000102BE016FB0241042281F861200122CF
:100F700081F83D200022CA65314603F035FA402051
:100F80008FE700BF4FF48061C8F8001016FB0941DD
:100F9000082224E7032905D10021C16520683146D4
:100FA00003F022FA10207CE7052105E0012103E08F
:100FB000C16D0131C165042180F860100221C8F8BB
:100FC000001090F8602020463146FFF7DBFC5EE61B
:100FD0000821C8F8001016FB02410522DAE600BF1E
:100FE00016FB024C614611F83D3F0022C1F81F205C
:100FF000002B4FF0030281F82420D0D19CF83C2034
:10100000002ACCD101220A70C9E700BF2169F9B1D9
:1010100016FB0240014651F85C2F0132032A0A6098
:1010200020D300220A60042180F860102046314657
:101030000422FFF7A7FC18E016FB0241082281F802
:101040006120314603F0D0F94FF4806029E700BFFA
:1010500016FB0241062281F86120314603F0C4F9F3
:1010600003E000BF022180F86010802019E700BF74
:1010700090F83F1001F0FE0102294FF0010180F8C5
:1010800060109BD12169012902D071B196E700BFA0
:10109000C16C00293FF492AFB0F8402011440139EF
:1010A000B1FBF2F1C9073FF489AF90F8551081F018
:1010B000010180F8551081E720684FF0007141610F
:1010C00003B0BDE8F08F00BFE068012804BF4EF612
:1010D0006020C5F80404204600F0B6F802988006A7
:1010E0003FF514AD16E50000002804BF012070474D
:1010F0002DE9F04F8BB00446056890F8F90228B945
:10110000002084F8F802204600F04EF8032084F80E
:10111000F902E86BC0055CBF00202061206803F085
:1011200061F8206804F11C0A0A90D4E90C5004F11B
:10113000040E9AE8C0079EE80E58CDE9085003A8AF
:1011400080E8C0030A988DE80058CDF81CA002F092
:1011500059FF2068012103F043FDD4E9008004F128
:1011600008070A90D4E90C01D4E9056504F1240BC1
:101170008CCFD4E907CE9BE8000ECDE9080102A888
:101180000A9980E820504046CDE90076CDE9059ADD
:10119000CDF81CB003F054FB012084F8F9020020C4
:1011A0000BB0BDE8F08F0000F0B587B000680026F6
:1011B000B0F1A04F0696059602D007B0F0BD00BF73
:1011C00043F630070196C4F202073868002440F065
:1011D000010038603868C4F2020400F00100019098
:1011E00001984FF4007002ADCDE902062046294671
:1011F0000496FFF785FA4FF4E05002900220CDE903
:1012000003060A200690204629460596FFF778FA3D
:101210007868002140F080007860019678690022AB
:1012200040F480407861786900F480400190019832
:10123000432000F009FC432000F0F2FB07B0F0BDB2
:10124000D0F8000302F09CBBD0F8000302F09CBB76
:10125000006803F0A5BC0000D0F8000302F038BB22
:1012600010B5044690F8F802012804BF022010BD12
:101270000121206884F8F812012102F0BBFF2068E8
:1012800002F0DEFF002084F8F80210BD10B504461D
:1012900090F8F802012804BF022010BD2068012147
:1012A00084F8F81203F0CEFC002084F8F80210BD98
:1012B00070B5B8B3044690F83D0028B9002084F812
:1012C0003C00204600F0B0F8242084F83D0020685F
:1012D000016821F001010160016841F400410160F1
:1012E000016821F40041016000F070FD48F2804186
:1012F000C0F21E0140F60013D4F804E088424FF01B
:101300000001C0F23D0348F2A16C4FF0000238BF6B
:1013100001219842C0F2010C38BF0122E64538BFD6
:101320000A460AB1012070BD4DF68361C4F21B313B
:10133000A0FB01122168950C4B684FF4967623F0C0
:101340003F0343EA9243754344F6D3564B60C1F2E0
:1013500062060B6AA5FB0656B50923F03F03E64576
:1013600038BF950C6A1C1A430A62CA6948F2A06623
:101370004CF6FF73C0F20106B64522EA03020BD811
:1013800001384FEA4E03B0FBF3F001306FF31F302A
:10139000042898BF04201EE0A368013863B1192314
:1013A0000EFB03F3B0FBF3F001306FF31F3078B1A5
:1013B00000F5804008E000BF0EEB4E03B0FBF3F0F9
:1013C00001306FF31F3028B100F5004003E000BF8B
:1013D000012000E001201043C8610868D4E9072318
:1013E00020F0C000104318430860886848F2FF32BC
:1013F00004F10C0690434CCE18431043A569886055
:10140000C86820F0FF0030432843C860086840F0F7
:101410000100086000202021206484F83D10206332
:1014200084F83E0070BD0000B0B586B0016845F29A
:101430000040C4F20000814202D006B0B0BD00BF3F
:10144000002443F630050194C4F20205296800F532
:10145000D83041F002012960296801F002010191B0
:1014600001994FF410710191122102910121CDE9EE
:1014700003140421059101A9FFF742F9009428699A
:1014800040F400102861286900F4001000900098D2
:1014900006B0B0BD2DE9F04186B00446006844F2C4
:1014A0000C05816843F20448C4F20005C4F2000848
:1014B000059108F57F77291FB84208BF08F104019C
:1014C000096808F5406604914168B84203913146C5
:1014D00004BF43F20441C4F200010A680292626848
:1014E00042F40072B2F5007F4CD10599890744BFE0
:1014F00003995FEA01617BD40498C00721D0029868
:1015000040061ED52068E16AB84208BF08F1080508
:101510002A6821F8022BE162618E01396186618EB1
:1015200079B9B842304608BF4046016821F06001F1
:101530000160608D28B9012084F84100204600F048
:10154000E5F80498400644BF02985FEA80606BD4D7
:101550000598000744BF03985FEA806044D520687F
:101560004168B84221F0A001416008BF4646316899
:1015700021F06001316000210191806801900198A3
:10158000B6E000BF049A920744BF029A5FEA026283
:101590006AD40598C00719D00398400616D520686C
:1015A000E16AC26821F8022BE162618E013961862D
:1015B000618E59B9416821F060014160608D28B9A0
:1015C000012084F84100204600F0A0F8059840066C
:1015D00044BF03985FEA806066D40498000744BF64
:1015E00002985FEA806077D406B0BDE8F08100BF62
:1015F000616A31F8022B6162C260618D01396185D7
:10160000618D00297FF478AF416821F0A00141602D
:10161000608E00287FF470AF012084F841002046DE
:1016200000F074F868E700BF20683146B84208BF90
:1016300041460A6822F060020A60416821F0A00178
:10164000416000210191C168019180680190019879
:10165000012084F84100606C40F002006064204684
:1016600000F056F874E700BF626AB84232F8023BF5
:10167000626208BF08F108052B60608D0138608543
:10168000608D00287FF485AF086820F0A000086016
:10169000608E00287FF47DAF012084F84100204651
:1016A00000F034F875E700BF20684168B84221F0C7
:1016B00060014160304608BF4046016821F0A0014A
:1016C0000160012084F84100606C40F00200606419
:1016D000204600F01DF880E72068B84208BF464663
:1016E000316821F0A0013160416821F06001416062
:1016F000012084F84100606C40F0040120466164E0
:1017000006B0BDE8F04100F003B8000070470000EB
:10171000704700002DE9F04100285AD0044690F8A7
:10172000410050B9002084F8400042F2C170C0F678
:1017300000006063204600F0A5F8022184F8411003
:1017400020686269C36940F6BF76B343022AC36169
:10175000016203D12169022244E000BFD4E90206FC
:10176000002521284FF0010038BF012500F0A8F91D
:101770002169B1F5007F07D1E368626963B107238E
:10178000002E08BF06230BE00522002E08BF04220E
:101790002A44D040626905E00823002E08BF0723D1
:1017A0002B44D84000EB80004000B0FBF2F04CF638
:1017B000CD420530CCF6CC42A0FB02206FF0FF02F8
:1017C00002EB101212F1FE0F06D2606C40F0100016
:1017D00060640120BDE8F081020900F00803206880
:1017E00042EA431211430162C16940F6BF7CD4E969
:1017F000015821EA0C06E26846EA0806A369164386
:101800002E431E4346F40066C661266A012E31D17E
:1018100041F2954643F21C4EC0F60006C4F2000E9B
:1018200066630EF579760EF54067B04204BF43F269
:101830001C47C4F200073968B04221EA0C01396044
:1018400044F22001C4F200014FF0020008BF0EF183
:101850000401086038686FF400714FF400660D42AF
:1018600008BF4FF41066304340EA080010431843A5
:1018700080B2386000200121606484F84110BDE826
:10188000F08100002DE9F0418AB043F60045006880
:10189000C4F200050021A842049103D00AB0BDE8BB
:1018A000F08100BF01200190322002904FF0020829
:1018B00001A8CDF80C8000F02BF9002818BFFEF726
:1018C00005FF002743F630000597C4F202000169C6
:1018D00005AC41F4004101610169062601F40041B3
:1018E000059105990597016841F0010101600168C2
:1018F00001F00101059105990597016841F0040186
:1019000001600068214600F0040005900598102051
:10191000CDE9050805F5E230CDE907770996FEF730
:10192000EFFE4FF4A450CDE9050805F5E630214659
:10193000CDE907770996FEF7E3FE0AB0BDE8F0812E
:10194000704700007047000040F2000040F6AC0114
:10195000C2F20000C2F2000100780A681044086078
:101960007047000080B543F60040C4F202000168F1
:1019700041F400710160016841F480610160016817
:1019800041F480710160032000F08AF8002000F02B
:1019900005F800F027F8002080BD000070B540F287
:1019A0000006C2F2000640F228013278C2F20001BD
:1019B0004FF47A730968B3FBF2F20446B1FBF2F11B
:1019C000084600F0A3FC0F2C4FF0010508D838B9E9
:1019D0004FF0FF3021460022002500F035F87460FA
:1019E000284670BD82B0002043F640010190C4F249
:1019F00002014A6842F480424A604A6802F4804226
:101A00000192019A0090086840F0805008600868D0
:101A100000F0805000900098072002B000F040B81D
:101A2000002848BF7047C1B200F01F00012202FA2F
:101A300000F04EF20012CEF2000242EAD10121F093
:101A4000030108607047000010B54EF60C5CCEF242
:101A5000000CDCF80030C3F3022E8EF00704042CD7
:101A600028BF0424BEF103034FF0FF3E0EFA04F436
:101A700038BF0023A14399400EFA03F39A43114360
:101A800000F00F0200F160430901043A03F56443DA
:101A90006244002848BF02F10C03197010BD000019
:101AA0004EF60C51CEF200010A684FF6FF031A40C1
:101AB00060F30A2242F0806040F0FD7008607047D9
:101AC000012823D143F60400C4F202004168090250
:101AD0001CD401680268490241F20021C0F27A0177
:101AE00002F03F025CBF42F20041C0F2F401D0F8C4
:101AF0008030B1FBF2F1D0F88000C3F3881251437B
:101B0000C0F30270B1FBF0F0704700BF00207047D7
:101B1000F0B581B00446006810F0050F2DD068279D
:101B2000C4F2472743F670060020C4F2020638606C
:101B3000FEF7C0FE054600BF56F8700C000105D543
:101B4000FEF7B8FE401B0228F6D93FE0D4E90110A9
:101B5000000740EA8110706101203860FEF7AAFE9C
:101B6000054600BF56F8700C000105D4FEF7A2FE32
:101B7000401B0228F6D929E0206880074FF00000BA
:101B800058D543F67006C4F20206009056F8300CA1
:101B900047F2000740F0805046F8300C56F8300C01
:101BA000C4F2000700F0805000900098386840F4BC
:101BB00080703860FEF77EFE054600BF3868C005BD
:101BC00008D4FEF777FE401B0228F7D9032001B0A6
:101BD000F0BD00BF306810F4407013D0E16801F42C
:101BE000407188420ED0306840F64061C4F247210F
:101BF000012220F440700A6000220A6030603068E0
:101C0000C00719D1E06856F8681C4FF6FF4300F48E
:101C1000407221F4F811C0F6FF730340B2F5407F23
:101C200008BF194346F8681C31686FF31F3008433A
:101C30003060002001B0F0BDFEF73CFE054641F2E9
:101C4000883700BF30688007DCD4FEF733FE401BC6
:101C5000B8424FF00300F5D9ECE7000070470000F0
:101C60002DE9F041002800F08B8043F60808C4F20B
:101C700002080446D8F8F8030D4600F00700884231
:101C800007D288F8F853D8F8F80300F00700A84204
:101C900076D12068810717D5410705D5D8F80010FF
:101CA00041F4E051C8F80010010705D5D8F800103C
:101CB00041F46041C8F80010D8F80010A26821F083
:101CC000F0011143C8F80010C0073FD1D8F8F8035D
:101CD00000F00700A84207D988F8F853D8F8F803AD
:101CE00000F00700A8424BD12068410707D5D8F87B
:101CF0000010E26821F4E0511143C8F80010000719
:101D000008D5D8F80000216920F4604040EAC100FD
:101D1000C8F8000000F06EF8D8F8001045F65A0236
:101D2000C1F30311C0F60002515C40F2280220FA10
:101D300001F140F20400C2F200000068C2F20002A9
:101D40001160FFF72BFE0020BDE8F0816068811E66
:101D5000022907D258F8081C89015CBF0120BDE8A0
:101D6000F08111E0012807D158F8081C89035CBFF5
:101D70000120BDE8F08107E058F8081C890703D46A
:101D80000120BDE8F08100BFD8F8001021F0030168
:101D90000843C8F80000FEF78DFD064641F288377B
:101DA000D8F80000616800F00C00B0EB810F8DD016
:101DB000FEF780FD801BB842F2D90320BDE8F08118
:101DC0004C20C4F2472001210160704740F22800F6
:101DD00043F60801C2F20000C4F20201006809687B
:101DE00045F66A02C1F38221C0F60002515CC84088
:101DF0007047000010B543F60404C4F202046068A2
:101E000000F00C0142F200400829C0F2F40007D0B3
:101E1000042918BF10BD41F20020C0F27A0010BDA5
:101E2000216801F03F02216823684902C3F3881149
:101E300006D4A1FB00010023FEF755FA07E000BF1E
:101E400041F20020C0F27A004843B0FBF2F0216872
:101E50000222C1F3014102EB4101B0FBF1F010BDE0
:101E600010B543F60C04C4F202042068000658BF03
:101E700010BDFFF7F3FE8020A07010BD2DE9F041EA
:101E800082B0002868D00446007843F60006C007F8
:101E9000C4F202060BD0B06800F00C00042840F039
:101EA0009F803068800302D56068002854D0207875
:101EB00080071AD5B06810F00C0F09D0B06800F098
:101EC0000C00082840F0A6807068400200F1A28053
:101ED0003068800702D5E06801283DD1306821696B
:101EE00020F0F80040EAC10030602078000737D4C5
:101EF000207840074CD4A56955B3B06800F00C00B9
:101F0000082840F0BB80012D26D07068E16900F4FC
:101F100080028A4220D1216A00F03F028A421BD10E
:101F200047F6C071626A0140B1EB821F14D1A16A09
:101F30004FF6FF73C903994300F44032A1F5803195
:101F40008A4209D1E16A00F07060B0EB016F03D101
:101F5000002002B0BDE8F081012002B0BDE8F081B0
:101F60006069002840F20000C4F2472076D00121C9
:101F7000C0F8801EFEF79EFC054600BF706F80070C
:101F8000B6D4FEF797FC401B0228F7D9DDE000BF6E
:101F9000306C10F080580AD100200190306C40F075
:101FA00080503064306C00F080500190019847F20E
:101FB0000007C4F200073868C00541D4386840F40F
:101FC00080703860FEF776FC054600BF3868C005B3
:101FD00036D4FEF76FFC401B0228F7D9B5E000BFEE
:101FE000B06800F00C00082803D1706840023FF58B
:101FF00058AF6068B0F5803F07D0B0F5A02F40F033
:102000008D80306840F480203060306840F480304B
:1020100030608DE0E068002852D00020C4F24720F4
:1020200001210160FEF746FC054600BF30688007CD
:102030003FF554AFFEF73EFC401B0228F6D984E082
:10204000A068012805D005284ED1306F40F004006B
:102050003067306F40F0010030674FE00021C0F87A
:10206000801EFEF727FC0546706F80077FF540AFA6
:10207000FEF720FC401B0228F6D966E00027C4F2D8
:10208000472700203866FEF715FC022D05460BD1C8
:10209000306880015ED5FEF70DFC401B02284FF032
:1020A0000300F5D955E700BF306880017FF550AFD8
:1020B000FEF700FC401B02284FF00300F4D948E76C
:1020C0000020C4F2472000210160FEF7F3FB054623
:1020D000306880077FF509AFFEF7ECFB401B022854
:1020E0004FF00300F4D934E7316F002821F00101EB
:1020F0003167316F21F0040131674DD0FEF7DAFB13
:10210000054641F2883700BF306F800756D4FEF78E
:10211000D1FB401BB842F7D917E000BF3168002857
:1021200021F480313160316821F4802131604FD059
:10213000FEF7C0FB054600BF306880033FF5B7AE31
:10214000FEF7B8FB401B6428F6D9032002B0BDE8B7
:10215000F08100BF04F11C052FCD084340EA821036
:10216000D9034FF6FF729143A1F5803140EA056033
:102170000843706001203866FEF79CFB044600BFF0
:10218000306880013FF5E4AEFEF794FB001B0228A7
:102190004FF00300F4D9DCE6FEF78CFB054641F274
:1021A000883700BF306F800708D5FEF783FB401BE0
:1021B000B8424FF00300F5D9CBE600BFB8F1000FED
:1021C0007FF499AE306C20F08050306493E600BF0D
:1021D000FEF770FB054600BF306880037FF567AEF1
:1021E000FEF768FB401B64284FF00300F4D9B0E60B
:1021F00070B538B10446406A30B10020206104F166
:10220000140007E0012070BD6068B0F5827F03D044
:1022100004F11C00002101600026A66294F8510020
:1022200020B9204684F8506000F03CF8022084F881
:10223000510094E80F0001F48271056802F4044231
:1022400025F040050560114403F400622369114440
:1022500003F002026369114403F00102A369E56916
:10226000114403F40072114405F03802256A114448
:1022700005F08002A56A114305F400521143016084
:10228000626A042101EA134102F010021144416024
:10229000C16921F40061C1610120666584F85100C3
:1022A000304670BD80B586B0016843F20000C4F2CC
:1022B0000100814202D006B080BD00BF002143F67C
:1022C00030020191C4F20202536900F5504043F418
:1022D00080535361536903F480530193019B01912F
:1022E000136843F001031360126802F001020192C7
:1022F000019AE02201920222CDE9022104910521F6
:10230000059101A9FEF7FCF906B080BD411E002031
:10231000B0EB116F1CBF012070474EF21002CEF2DD
:10232000000251604EF62351CEF20001F0230B70F3
:102330000721906011607047002804BF012070479A
:1023400010B5044690F83D0028B9002084F83C0000
:10235000204600F01FF8022084F83D002068211D6F
:1023600000F062FB012084F8460084F83E0084F807
:102370003F0084F8400084F8410084F8420084F86B
:10238000430084F8440084F8450084F83D000020B0
:1023900010BD000081B0006844F20041C4F20101A8
:1023A000884201D001B070470020009043F64400FD
:1023B000C4F20200016841F400310160006800F4D9
:1023C00000300090009801B07047000080B586B0E2
:1023D000016844F20040C4F20100814202D006B01C
:1023E00080BD00BF002143F630020191C4F2020219
:1023F000136800F5404043F002031360126802F0D6
:1024000002020192019A4FF4807201920222CDE9F8
:10241000022104910321059101A9FEF771F906B08B
:1024200080BD00002DE9F04390F83C30012B04BF43
:102430000220BDE8F0834FEAB202032A00F2FC80DA
:10244000DFE802F0023E7EBE036840F200471A6AEF
:1024500043F4806522F001021A621C6A1A46D3F81E
:1024600004E052F818CF8E6824F00204C4F2010789
:10247000BD4244EA060405D1CE6824F00C0426F0DF
:10248000040634430E68BD4207D1D1E905572EF446
:10249000407E45EA0E0545EA070E2CF073073743E8
:1024A000C3F804E09F614F6809695F631C629F691C
:1024B00047F008079F619F6927F004079F61B1E01B
:1024C000036840F200481A6A43F4806522F0100263
:1024D0001A621C6A1A46D3F804C052F818EF8F68C3
:1024E00024F02004C4F20108454544EA071407D14A
:1024F000CF686FF0400624F0C00406EA07163443A4
:10250000D1F80090454506D1D1E905562CF4406735
:102510002E4347EA860C2EF4E64747EA0927C3F81C
:1025200004C09F614F6809699F631C629F6947F4FB
:1025300000679F619F6927F480679F6171E000BF1A
:10254000036840F200481A6A43F4806522F48072FE
:102550001A621C6A1A46D3F804C052F81CEF8F683E
:1025600024F40074C4F20108454544EA072408D164
:10257000CF6840F2FF463F0224F4406427EA060693
:102580003443D1F80090454506D1D1E905562CF4E5
:1025900040572E4347EA061C2EF0730747EA090707
:1025A000C3F804C0DF614F680969DF631C62DF693B
:1025B00047F00807DF61DF6927F00407DF6131E0DA
:1025C000036840F200451A6A43F4806722F480529F
:1025D0001A621A46D3F820C05C6852F81CEFD1F892
:1025E00000808E68C4F20105AF4204D14D6924F425
:1025F000804444EA85142CF4005747EA06372EF449
:10260000E64646EA08265C60DE614E6809691E649B
:102610001F62DF6947F40067DF61DF6927F48067C5
:10262000DF6109021368194311600021002280F85C
:102630003C200846BDE8F0830121002280F83C20C0
:102640000846BDE8F0830000002804BF0120704761
:1026500010B5044690F83D0028B9002084F83C00ED
:10266000204600F01FF8022084F83D002068211D5C
:1026700000F0DAF9012084F8460084F83E0084F87E
:102680003F0084F8400084F8410084F8420084F858
:10269000430084F8440084F8450084F83D0000209D
:1026A00010BD00007047000041B1082910D0042976
:1026B00014BF00F1410200F13F020BE090F83E2010
:1026C000012A1CBF01207047022280F83E2013E03F
:1026D00000F140021278012A1CBF0120704702223B
:1026E000082907D0042914BF80F8412080F83F2032
:1026F00002E000BF80F84020006801F01F010122C5
:10270000036A02FA01F123EA01020262026A11433A
:1027100041F2FF72C4F20002904201620CDC40F20E
:10272000FF71C4F20001884214DCB0F1804F37D051
:1027300040F2004116E000BF40F2FF31C4F2010157
:10274000884215DC41F60001C4F20001884227D01E
:10275000002115E040F60001C4F2000188421FD0BC
:1027600040F60041C4F20001884219D01FE000BFCA
:1027700044F20001C4F20101884211D040F200414C
:10278000C4F20101884212D1416C40F2004340F48E
:102790008062C4F2010341F400419A42416406D1CF
:1027A000816801F00701062904BF00207047016815
:1027B00041F001010160002070470000FEE70000C9
:1027C00010B584B0044600688168039194F8411004
:1027D000042935D10399C90716D04168490613D594
:1027E000C168E26A22F8021BE262618E01396186E9
:1027F000618E49B9416821F060014160012084F88F
:1028000041002046FFF79CF80398400618D5206841
:102810004168890614D5416821F0600141600021BA
:102820000291C1680291806802900298012084F8A8
:102830004100606C40F0020060642046FEF768FFD3
:1028400094F84100032817D1039880070DD520681C
:102850004168090609D5616A31F8022BC2606162DC
:10286000618D01396185618DF1B10398000703D550
:1028700020684168890601D404B010BD416821F088
:10288000A001416000210191806801900198012020
:1028900084F84100606C40F004012046616404B09B
:1028A000BDE81040FEF734BF416821F0A00141604F
:1028B000012084F841002046FFF744F80398000700
:1028C000DAD5D5E70246002840F60000C4F202003F
:1028D0004FF0010118BF0122FDF7E6BF80B540F2BD
:1028E000940043F6C971C2F20000C0F60001012253
:1028F00000F064FF002818BFFDF7E8FE40F29400E6
:1029000040F20801C2F20000C2F2000101F010FB27
:10291000002818BFFDF7DAFE40F29400C2F2000072
:1029200001F048FB002808BF80BDBDE88040FDF7EE
:10293000CDBE000040F29400C2F2000001F09CB84D
:10294000FEE70000FFF78CFAFEE7000040F26C4063
:10295000C2F20000FEF772B8704700007047000036
:10296000FEF7F2BFB0B592B0002443F64000CDE9C7
:102970000A44CDE908440594CDE90344CDE9014476
:102980000094C4F202000168022541F08051016008
:10299000006800F080500090009847F2000000941A
:1029A000C4F20000016841F480410160006800F455
:1029B000804000900098012006904FF480300790EE
:1029C0004FF480000D9004200E90A820CDE90F0553
:1029D0000720119006A80C95FFF750FA20B1EFF3ED
:1029E000108072B6FEE700BF0F20CDE901054FF45D
:1029F000A050CDE9040001A805210394FFF730F9A8
:102A000020B1EFF3108072B6FEE700BFFFF7D8F9F0
:102A100012B0B0BD4EF68850CEF20000016841F40D
:102A2000700101607047000010B540F6FF3E03687A
:102A3000C4F2000E40F2004C7045C4F2010C27DCD9
:102A4000B0F1804F31D040F20042C4F20002904217
:102A50002BD040F60002C4F20002904225D041F68D
:102A6000FF72C4F20002904229DC70453CDCB0F1F8
:102A7000804F5FD040F20042C4F20002904259D031
:102A800040F60002C4F20002904253D056E000BF6C
:102A900040F60042C4F20002904206D0604504D0E5
:102AA0000022C4F201029042D9D14A6823F0700397
:102AB000134341F6FF72C4F200029042D5DD43F6A3
:102AC000FF72C4F20102904222DC42F20002C4F220
:102AD000000290422ED00022C4F20102904229D07E
:102AE000604527D02AE000BF40F60042C4F2000251
:102AF00090421FD041F60002C4F20002904219D069
:102B000041F60042C4F20002904213D016E000BF2A
:102B100044F20002C4F2010290420BD044F60002DB
:102B2000C4F20102904205D044F20042C4F2010214
:102B3000904203D1CA6823F44073134323F0800208
:102B40004B69D1F800E08C681A430260C46240F41B
:102B50008062C0F828E0624504BF09690163012171
:102B6000416110BD90F88523120601D400225AE07D
:102B700090F88923120601D4012254E090F88D23A5
:102B8000120601D402224EE090F89123120601D4DD
:102B9000032248E090F89523120601D4042242E073
:102BA00090F89923120601D405223CE090F89D2369
:102BB000120601D4062236E090F8A123120601D4B1
:102BC000072230E090F8A523120601D408222AE05B
:102BD00090F8A923120601D4092224E090F8AD232D
:102BE000120601D40A221EE090F8B123120601D485
:102BF0000B2218E090F8B523120601D40C2212E043
:102C000090F8B923120601D40D220CE090F8BD23F0
:102C1000120601D40E2206E090F8C123120644BF2A
:102C2000FF2070470F2201F5004100EB8200C0F841
:102C3000841310467047000080B584B0944601228A
:102C40004FF0000ECDE90021194601220223CDF8F4
:102C50000CE0CDF808C000F0E5FE002004B080BD17
:102C600010B584B09E4690F81D339446069A002411
:102C7000002B18BF22460123CDE900310392714693
:102C800000220223CDF808C000F0CCFE002004B0E2
:102C900010BD0000B0B50446D0F87C030722C0691F
:102CA00000F1400142F2A11020820020C4F812007D
:102CB0000720E082204600F0F5F9054610B12846CD
:102CC000B0BD00BFD4F8D423204602219047284647
:102CD000B0BD0000B0B50446D0F87C03C5692978C2
:102CE00041B1204600F0B6F92978204600F08EFB6D
:102CF00000202870297B41B1204600F0ABF9297BE8
:102D0000204600F083FB00202873697B41B12046F8
:102D100000F0A0F9697B204600F078FB0020687382
:102D2000D4F87C03C06928B1FDF7B6FAD4F87C0367
:102D30000021C1610020B0BD2DE9F04184B0022125
:102D4000022201230446022600F0D6FA012806D802
:102D500007462046394601F0F9F828B102263046E8
:102D600004B0BDE8F08100BF01205021FDF780FADA
:102D70000546D4F87C03C5617DB31A2017FB0041DA
:102D800091F94E03B0F1FF3F02DD002005E000BFE6
:102D900001F55371898868706981C1B22046FFF7D7
:102DA000E1FE014694F81D036A7894F81C336F899C
:102DB0000326CDE9000620462970029700F04EFE5A
:102DC00029782046002200F0F9FD20460A21002241
:102DD000002300F091FA012804D90226304604B0FD
:102DE000BDE8F0811A2110FB014292F94E1302F561
:102DF0005372B1F1FF3F9288C7BFA9732A83E97369
:102E00006A831A2110FB014191F9560301F55671AD
:102E1000B0F1FF3F04DD0988A873298304E000BFF7
:102E20000988E873A87B6983C1B22046FFF79AFE40
:102E3000E97B68732046FFF795FE697BAA7B94F8CF
:102E40001C3394F81D732E8B28734FF00208204614
:102E5000CDE90078029600F001FE94F81D03297B6D
:102E6000EA7B94F81C336F8BCDE90008204602976B
:102E700000F0F4FD697B00262046002285F84C60B6
:102E800000F09CFD297B2046002200F097FD304693
:102E900004B0BDE8F08100007047000070B582B05A
:102EA0000446D0F87C03C66996F84C0004286CD818
:102EB000DFE800F004081C4C620000BF002002B0F4
:102EC00070BD00BF42F22100B16C20820020C4F826
:102ED00012000720E0822046072200F0E3F80128D4
:102EE00053D0002854D1022053E000BF42F2A11079
:102EF0002082002006F14005C4F812000720E0827D
:102F000020462946072200F0CDF801283DD00028B0
:102F10003ED1002086F84C00B06C96F8441002793F
:102F2000914232D196F84610827991422DD196F88D
:102F300045104279914228D129680068814224D104
:102F40002046FFF7A9FF012002B070BD96F84D00A2
:102F5000022823D0012835D1706A328BF169904262
:102F6000737B88BF1046012582B220460095FFF78B
:102F700077FE022024E000BF20460021002400F05C
:102F80006FF8002808BF86F84C40012002B070BDE1
:102F9000042086F84C00012002B070BD717B2046F1
:102FA00000F092FC02280AD001280BD1716A308B04
:102FB000814241D9F269091A10447162F06101201D
:102FC00086F84D00D4F87C03C56995F84E000428B6
:102FD0000ED00328D9D1296A6A8B2B7B2046FFF7B4
:102FE0002BFE042085F84E00012002B070BD00BF0A
:102FF000297B204600F068FC0128C6D1297B2046A9
:1030000000F054FCA96A091A0CD06A8B904209D9C5
:103010002A6AA96210442862032085F84E00012024
:1030200002B070BD002085F84E00204600F00CF87C
:10303000012002B070BD00BF0020706286F84D0014
:10304000204600F005F8BDE77047000000207047FB
:103050007047000080B500F0E5FB002080BD000057
:103060008278012A05D14FF48172818200210261A8
:10307000C1820021002200F015B8000080B584B0A4
:10308000944601224FF0000ECDE90021194601229D
:103090000023CDF80CE0CDF808C000F0C3FC002000
:1030A00004B080BDB0B582B00446807802280BD051
:1030B000012840F0D38001250220A160A28125765D
:1030C000A070284602B0B0BD207E01380A2800F268
:1030D000C5800FF20601DFE800F007350F451B57EA
:1030E0006B7B872B970000BF627904F110012046AB
:1030F00000F0EEF802202FE0D4F8C403A168A28902
:103100002379E0812046FFF7B9FF042024E000BFC7
:10311000A168A289637901252046009500F0BEF8D8
:10312000D4F8C403E08106202076284602B0B0BD62
:103130006179204600F0C8FB012853D004280AD04A
:10314000022819E06179204600F0BEFB042818BF70
:10315000022840F077800B2020760125284602B017
:10316000B0BD00BF2179204600F0AEFB052800F07D
:1031700079800428EFD0012804BF0920207601259A
:10318000284602B0B0BD00BF6179204600F09CFB2C
:10319000411E04294FF001053FF693AF0320DFE8FD
:1031A00001F0056D036F64008BE700BF0720D3E7D4
:1031B0002379204600210022FFF760FFD4F8C403E2
:1031C0000125E08108202076284602B0B0BD00BF6E
:1031D0002179204600F078FB052845D00428BAD094
:1031E00001283BD1002040E06379012520460021E1
:1031F0000022009500F052F8D4F8C403E0810A20C0
:103200002076284602B0B0BD607E0130C1B20229EE
:10321000607605D801252576A570284602B0B0BD98
:10322000D4F8D42320460621904761790025204612
:10323000657600F0EBF82179204600F0E7F825707C
:1032400020E000BF012809D1E18A94F91000F9B10A
:10325000B0F1FF3FCCBF052003207DE701252846C4
:1032600002B0B0BD032000E003200121A1700021C5
:1032700021760546284602B0B0BD00BF05206BE7A9
:103280000B20207601200225A070284602B0B0BD98
:10329000B0F1FF3FCCBF072009205DE710B584B037
:1032A0009E4690F81D339446069A0024002B18BFC2
:1032B00022460123CDE9003103927146002200230A
:1032C000CDF808C000F0AEFB002004B010BD000037
:1032D00080B584B08C46002108230091CDE90231ED
:1032E000114600220023CDF804C000F09BFB002013
:1032F00004B080BDFDF7F0B9FF2911D1FF2A21D11B
:10330000FF2B6BD090F84913994267D090F8631364
:103310004FF0FF30994208BF0120C0B2704700BF94
:1033200090F847C3FF2A1DD1FF2B2DD18C4555D0D6
:1033300090F861234FF0FF308A4208BF0120C0B2ED
:10334000704700BF90F84813FF2B2DD1914245D014
:1033500090F862134FF0FF30914208BF0120C0B2D5
:10336000704700BFFF2B2FD18C4503D190F8483315
:10337000934233D090F861338B4243D190F862038B
:1033800090423BD03EE000BF8C4503D190F84923EA
:103390009A4223D090F861238A4233D190F8630394
:1033A00098422FD12AE000BF914203D190F84913EF
:1033B000994213D090F86213914223D190F863039D
:1033C00098421FD11AE000BF8C450BD190F848C33A
:1033D000944507D190F849C39C4503D10020C0B261
:1033E000704700BF90F861C38C450BD190F8621311
:1033F000914207D190F86303984203D10120C0B2F3
:10340000704700BFFF20C0B2704700000F2907D8E7
:1034100000EB8100D0F884136FF3DF31C0F8841320
:10342000002070472DE9F04F85B0834680780E4626
:1034300001280BF11C0509D14FF4D060ABF8100046
:103440004FF40070CBF81200ABF8166058462946CE
:103450003246FFF727FE18B1C0B205B0BDE8F08FC5
:103460009BF81C009BF81D10BBF81E409BF820C069
:103470008BF839138BF83803B4F5807F28BF4FF4ED
:103480008074DBF821100928ABF83A438BF83CC371
:10349000CBF83D131CBF09208BF838030A2EC0F06F
:1034A000CD800A2CC0F0D08000214FF0000E00200B
:1034B0000926CDF800C000BF2B781D446F781E444C
:1034C000042F40F0B1802B78CDF804E0092B1CBF0D
:1034D00009222A701A2201FB02B2092182F8421342
:1034E0006978049282F84313A97882F84413E97842
:1034F00082F845132F7982F8467395F805E0002F7E
:1035000082F847E3AB7982F84833E97982F84913C6
:1035100095F808C0029182F84AC300F07F808EF0CF
:10352000010183F0020211434FF0000A18BF01218C
:10353000039110E048F0020101F00301032905D1D5
:10354000AEF1110111F1100F38BF03200AF1010A89
:10355000BA45664462D2B1B2A14280F0878095F844
:1035600000C0654469780529F2D10399287829B10A
:10357000072107284FF0070007D108E0029931B969
:10358000092109284FF0090001D008462970049943
:1035900001EBCA0989F84C03687889F84D03A878CB
:1035A00089F84E0395F8038089F84F832979687963
:1035B00041EA0021A9F8501395F806E089F852E392
:1035C000D1B1000209F5547100F4784008802A79DD
:1035D00023463C466F7967F30A22B2F5007F28BF85
:1035E0004FF40072104427461C46088000209BF8C8
:1035F0001D1331B99EE700BF03209BF81D1300295E
:1036000098D008F00301032902D0012998D09DE742
:10361000BEF1000F08BF032098E700BFDDF804E00B
:10362000DDF800C00EF1010E5FFA8EF101290ED80F
:10363000B2B2A242FFF440AF09E000BF0020C0B226
:1036400005B0BDE8F08F00BF00204FF0000EBCF1C8
:10365000020F5FFA8EF128BF4FF0020C8C4588BF35
:103660000320C0B205B0BDE8F08F00BF0320C0B298
:1036700005B0BDE8F08F0000B0B5044680780D4677
:10368000012804F58E7107D14FF4D06020824FF4E9
:103690008070C4F81200E58220462A46FFF702FD3A
:1036A00000B1B0BDD4F81C1194F82021C4F8261341
:1036B00084F82A23B4F8211194F82321A4F82B13B9
:1036C000A2F108014FEAF101072984F82D2305D85A
:1036D000012202FA01F111F08B0F02D1402184F88E
:1036E0002D13092D38BFB0BDB4F8241194F82A2148
:1036F000A4F82E13D4F8261184F83423C4F8301318
:10370000B4F82B1194F82D21A4F8351384F837233D
:10371000B0BD000070B51446827806461D460846C6
:10372000012A06F58E7109D100F540704FF4D06280
:10373000708240F209403282B082F58230462A46D9
:10374000FFF7B0FC00B170BD96F81D11032918BF3A
:1037500070BD96F81C110239A94238BF0D46EDB173
:1037600006F58F71002200BF931C8E5C9BB2AB42AA
:10377000267017D2CE5C131D9BB2AB42667015D279
:10378000CE5C931D9BB2AB42A67013D2CB5C0832C9
:1037900092B2E370AA4204F10404E5D3002121703F
:1037A00070BD00BF01340021217070BD02340021C2
:1037B000217070BD03340021217070BD002804BF4A
:1037C0000220704770B504460D4680F8CC2300F502
:1037D0005F7600F58E704FF40071FCF7FCFD30460B
:1037E0004821FCF71AFE00204FF48071012220705E
:1037F000A4F80110C4F8C40322834022A271C4F8C3
:103800001C1384F8230384F8200384F8210384F82C
:1038100022032046002D18BFC4F8D45300F068F8E6
:10382000002070BD80B5D0F8D003FDF765F840F2F8
:1038300000220223C100C0F20122042838BF22FA6C
:1038400001F3D8B280BD00000146012081F82003B9
:103850000022002081F8212381F8222370470000F4
:1038600010B50446012084F82103002084F82003C9
:1038700084F82303204600F0C3F821792046FFF79F
:10388000C5FD61792046FFF7C1FD002010BD000095
:1038900080B590F8CC03012802D10846FFF712F852
:1038A000C820FCF719FF002080BD0000D0F8D0032D
:1038B000FDF71CB880B5D0F8D003FDF70DF803284C
:1038C00028BF0120C0B280BDD0F8D003FDF708B8F2
:1038D000D0F8C4130131C0F8C41301780B2918BF04
:1038E0007047D0F87C1309B1896908477047000018
:1038F00010B5044690F8CC03012824D140F26C4066
:10390000C2F200004FF0A0410160082100F1080C54
:10391000012200238CE80E000221C0F80043C4F805
:10392000D003C0E90613FDF7DFFB002818BFFCF742
:10393000CDFE40F26C40C2F20000FCF7C9FF014628
:10394000204600F037F8002010BD000010B584B00C
:10395000DDE906CE089CD0F8D003CDE900CE029474
:10396000FCF7DCFF40F200220223C100C0F201227A
:10397000042838BF22FA01F3D8B204B010BD000009
:10398000002180F823137047012180F8231370472A
:1039900080B5D0F8D003FDF75BFC40F20022022393
:1039A000C100C0F20122042838BF22FA01F3D8B2C4
:1039B00080BD0000C0F8C41370470000D0F8D003E9
:1039C0002C2311FB030090F83B1000290CBF80F85A
:1039D000552080F8542000207047000080B5D0F8B2
:1039E000D003FDF73DFC40F200220223C100C0F2EB
:1039F0000122042838BF22FA01F3D8B280BD0000AA
:103A000080B5D0F8D003FDF741FC40F2002202233C
:103A1000C100C0F20122042838BF22FA01F3D8B253
:103A200080BD0000B0B584B0DDE908CEDDE90A450F
:103A3000D0F8D003CDE900CECDE90245FCF7A4FFD4
:103A400040F200220223C100C0F20122042838BF44
:103A500022FA01F3D8B204B0B0BD000010B584B0B2
:103A6000DDE906CE089CCDE900CE0294FFF76EFF9B
:103A7000002004B010BD0000F0B585B0044602205F
:103A80008DF8130094F82103012804BF032020704F
:103A900020780B2800F23082DFE810F00C002C00B8
:103AA0003A0072002E02AE00E600FE000C011A0180
:103AB0003001200094F82003002800F01D8201202E
:103AC0002070C820FFF716FC2046FFF761FF00209A
:103AD00084F81C03C4F8C8030EE200BFD4F87C03CA
:103AE000002800F00982416920468847002005B07F
:103AF000F0BD00BF94F82303012840F01F8100208F
:103B000084F81F0302202070002005B0F0BD00BF24
:103B1000D4F8D42312B12046042190476420FFF743
:103B2000E9FB2046FFF7C6FE84F81D030520207040
:103B3000204600210026FFF715F8607120468021FD
:103B4000FFF710F8014694F81D0394F81C33A5798B
:103B50002171CDE90006204680220295FFF77EFF05
:103B600094F81D0394F81C336179A579CDE900061A
:103B7000204600220295FFF771FF002005B0F0BD3E
:103B8000002504F56170402184F821534026FCF79C
:103B900044FC04F58E704FF40071FCF71CFC4FF4EC
:103BA00080712570A4F80110C4F8C453012020834B
:103BB000D4F87C03A671C4F81C1320B1C168204658
:103BC0008847C4F87C53D4F8D42312B12046052189
:103BD000904794F82203012840F0C480002084F824
:103BE00022032046FFF7FAFE20460121FFF750FE90
:103BF000002005B0F0BD00BF6078072800F2768194
:103C0000DFE810F008000A01D0001401FE003201C4
:103C100040014E0120460821FFF72EFD032800F049
:103C20005B81002840F0628194F82D0394F81D23F5
:103C30000125217994F81C33A0716570002700924A
:103C40000290204680220197FFF708FF94F81D0399
:103C500094F81C336179A679CDE90007204600224B
:103C60000296FFF7FBFE42E1D4F87C0300285AD00D
:103C70000169204688478DF813009DF8130000283D
:103C800000F080809DF81300022804BF0D202070F2
:103C9000002005B0F0BD00BFD4F8D423002A00F006
:103CA0002B8120460121904708202070002005B07C
:103CB000F0BD00BF94F83D13204600F05FF90028E6
:103CC00040F01A8109202070002005B0F0BD00BF2F
:103CD00094F83F0380062BD52046012100F05CF9C3
:103CE0008DF813009DF8130010B39DF813000328FE
:103CF00004BF0A202070002005B0F0BDD4F8800376
:103D0000002800F0F980D4F8780394F8472301796B
:103D100000239142C4F87C3305D18168C4F87C0348
:103D200020468847A0B30D202070002005B0F0BDCC
:103D30000A202070002005B0F0BD00BFD4F8C803F1
:103D4000B0F57A7F14D994F81F030130C1B2042969
:103D500084F81F0334BF00200D202070002005B020
:103D6000F0BD00BF2046FFF739FE002005B0F0BDD2
:103D70000A30C4F8C8030A20FFF7BCFA002005B0D7
:103D8000F0BD00BF0B202070002005B0F0BD00BFCB
:103D900006202070D4F8D423204603219047002029
:103DA00005B0F0BD20460121012500F0D9F8032817
:103DB00000F08C80002840F09A800220FFF79AFAE9
:103DC00094F81D23A37901250320217984F81C533D
:103DD0006070002600920293204680220123019603
:103DE000FFF73CFE94F81D0394F81C336179A77922
:103DF000CDE90006204600220297FFF72FFE76E06D
:103E0000B4F83A132046FFF70DFB032818D000281A
:103E10006CD105205DE000BF20461221FFF72CFC8D
:103E200003280DD0002861D1022052E0204609214C
:103E3000FFF7F8FA032803D0002857D1042048E000
:103E400094F81E030130C1B2042984F81E034BD23A
:103E500061792046FFF7DAFA21792046FFF7D6FA92
:103E60000020607041E000BF94F8341341B104F5C4
:103E70008E722046FF23FFF74DFC032800D0A8BB1D
:103E8000062026E094F8351341B104F58E722046E1
:103E9000FF23FFF73FFC032800D038BB072018E0C2
:103EA00094F8361381B104F58E722046FF23FFF794
:103EB00031FC0028014618BF0121033818BF01203A
:103EC00001EA000513E000BF002510E00D2020707E
:103ED000002060700AE000BF94F81E030130C1B2F8
:103EE000042984F81E0319D30D20207001258DF8B4
:103EF00013509DF8130018B1002005B0F0BD00BFAD
:103F000094F837030021012884F8241314BF0720F4
:103F100008202070002005B0F0BD00BF6179204668
:103F2000FFF774FA21792046FFF770FA0020DCE7EA
:103F300011B1D0F880230AB1022070470122C0F8E5
:103F40008023C0F8781300207047000090F83C23CD
:103F50008A4292BF022080F824130020704700009C
:103F60008278012A05D14FF4A062418200210282A9
:103F7000416100210022FFF795B800008278012AF4
:103F800005D14FF41062418200210282416100217B
:103F90000022FFF787B800008278012A05D14FF48C
:103FA0004072418200210282416100210022FFF71C
:103FB00079B8000010B50446FFF710FD2046012136
:103FC000FFF766FC002010BD05290BD0042911D095
:103FD000022918BF7047022040F29001C2F200018E
:103FE00008707047032040F29001C2F2000108708F
:103FF000704700BF012040F29001C2F2000108703A
:104000007047000082B00499DDF808C0012940F62D
:104010004051C0F203016FD1826B4FF6BF7322F49F
:1040200080328263C268CFF6BD731A40C260C26834
:104030000B9B22F44012012BC26003D1C26842F4F0
:104040008012C26000220092009A01320092009A0F
:104050008A4200F2A9800269002A1ED4009A013225
:104060000092009A8A4200F29F800269002A14D4CA
:10407000009A01320092009A8A4200F29580026909
:10408000002A0AD4009A01320092009A8A4200F271
:104090008B800269B2F1FF3FD6DC002200920269F8
:1040A00042F001020261009A01320092009A8A42B3
:1040B0007AD80269D2071AD0009A01320092009A87
:1040C0008A4271D80269D20711D0009A0132009257
:1040D000009A8A4268D80269D20708D0009A013251
:1040E0000092009A8A425FD80269D207DBD1002190
:1040F000BCF1010F72D169E0C268089B42F0400236
:10410000C26000220192019A01320192019A8A4210
:1041100050D80269002A1BD4019A01320192019AF7
:104120008A4247D80269002A12D4019A01320192C8
:10413000019A8A423ED80269002A09D4019A0132C2
:104140000192019A8A4235D80269B2F1FF3FDADC66
:1041500000220192026942F001020261019A0132D9
:104160000192019A8A4225D80269D2071AD0019A8F
:1041700001320192019A8A421CD80269D20711D0F9
:10418000019A01320192019A8A4213D80269D20738
:1041900008D0019A01320192019A8A420AD8026932
:1041A000D207DBD1002106E00321BCF1010F15D1BC
:1041B0000CE000BF0321826B002B14BF22F480327D
:1041C00042F480328263BCF1010F07D1826842F071
:1041D00006028260826842F020028260084602B0D5
:1041E000704700000146806820F0010200208A60CC
:1041F0007047000081B000220092D0F840240129CD
:104200000092009A22F02E020092009B009A08BFB2
:1042100013F480530CD039B912F4805104D00099B2
:1042200021F48051C0F84014002001B0704700BF55
:1042300042F48051C0F840140098002001B070474B
:104240000146806840F0010200208A60704700004B
:1042500081B040F64051C0F2030100220092009A62
:1042600001320092009A8A424AD80269002A1BD47D
:10427000009A01320092009A8A4241D80269002ACB
:1042800012D4009A01320092009A8A4238D8026908
:10429000002A09D4009A01320092009A8A422FD84B
:1042A0000269B2F1FF3FDADC0022009210220261C3
:1042B000009A01320092009A8A4221D80269D206FD
:1042C0001AD5009A01320092009A8A4218D80269DF
:1042D000D20611D5009A01320092009A8A420FD874
:1042E0000269D20608D5009A01320092009A8A42E9
:1042F00006D80269D206DBD4002001B0704700BFA7
:10430000032001B07047000081B040F64052C0F277
:10431000030200230093009B01330093009B934210
:104320004AD80369002B1BD4009B01330093009BE8
:10433000934241D80369002B12D4009B01330093B0
:10434000009B934238D80369002B09D4009B0133AA
:104350000093009B93422FD80369B3F1FF3FDADC4F
:1043600089010023203100930161009901310091FE
:104370000099914220D8016989061AD50099013126
:1043800000910099914217D80169890611D50099C9
:1043900001310091009991420ED80169890608D532
:1043A0000099013100910099914205D8016989066F
:1043B000DBD4002001B07047032001B0704700003B
:1043C000D0F8080480B2704781B000210091D0F885
:1043D000400400900098C0F3414001B070470000D5
:1043E000406900F00100704780B581B00022009262
:1043F00000F5A06E49015EF801C05EF801308268E8
:10440000920605D5B3F1FF3F02DD002001B080BD6B
:1044100051F80E205FEA4C3342F0804241F80E2002
:1044200042D482689206F0D4C26A51F80E0012F4A7
:104430007F0F40D120F0004041F80E0051F80E00EF
:1044400040F0004041F80E000098013000900098C4
:10445000B0F57A7FD9D851F80E00B0F1FF3FD4DC27
:104460000098013000900098B0F57A7FCDD851F8CF
:104470000E00B0F1FF3FC8DC0098013000900098BA
:10448000B0F57A7FC1D851F80E00B0F1FF3FBCDC27
:104490000098013000900098B0F57A7FB5D851F8B7
:1044A0000E000028D0D4B0E7D0F8102451F80E0048
:1044B00012F47F0F06D040F0004041F80E000020BB
:1044C00001B080BD20F0004041F80E0051F80E0010
:1044D00040F0004041F80E00009801300090009834
:1044E000B0F57A7F3FF691AF51F80E00B0F1FF3F83
:1044F0003FF78BAF0098013000900098B0F57A7FBD
:104500003FF683AF51F80E00B0F1FF3F3FF77DAFAC
:104510000098013000900098B0F57A7F3FF675AFB3
:1045200051F80E00B0F1FF3F3FF76FAF0098013038
:1045300000900098B0F57A7F3FF667AF51F80E0013
:104540000028C9D461E700002DE9F04381B0DDE91E
:1045500008840A9E00EB411707F5A06E4FF0FF3567
:10456000032C4FF00109C7F8085511D8DFE804F013
:104570000214022040F29D4C754657B2002F45F8B8
:104580000CCF1DD4C76BFF0520D54FF0600C19E090
:104590004FF0010C1CE000BF40F2252C754657B2CD
:1045A000B7F1FF3F45F80CCF10DC4FF4C07C09E0B9
:1045B00040F29D6C754657B2002F45F80CCF05D5DB
:1045C0004FF4807C2F6847EA0C072F604FF0000CF7
:1045D000DEF80C5001F00F0145F00205CEF80C504A
:1045E000D0F8185409FA01F12943C0F81814816968
:1045F0004FF4F04541F00071816100210091D0F845
:10460000400402F0800105EAC222009003F07F031B
:1046100042EA0121009804F0030541EA83516FF357
:10462000DF2641EA854100F4C0203144B0F5802FF7
:10463000084618BF00F50030B8F1020F18BF084651
:1046400004F0FD010129CEF8000005D1DEF80000DC
:1046500040F00050CEF80000604601B0BDE8F083A5
:10466000D0F8140480B27047F0B581B091F801C061
:10467000C36BDB0503D50B79002B00F07580D1F8F7
:1046800014E0BEF1000F0DD00B890EEB0304013CCA
:10469000B4FBF3F39CB2B4F5807F88BF4FF4807411
:1046A00001E000BF0124CB780026C1F6F876002B8C
:1046B0001ABF0D896543754606EAC4448E7A0D61BA
:1046C0006FF3DF452C4406F0030544EA457500EB23
:1046D0004C16C6F8105506F5A064002A1CBFCD681C
:1046E0006561D0F80854266826F0005626604FF021
:1046F0000056276826EA457545EA070525602568BE
:104700000095009D25F080450095009D63B145F41E
:1047100000400090009840F0004000900098206019
:10472000002001B0F0BD00BF25F400430093009BC2
:10473000BEF1000F43F000430093009B2360EFD0D5
:10474000002AEDD1CA79032A30D8DFE802F003212C
:10475000032100BFC36A0EF10302C2F38F029BB2B2
:104760009A4223D920221EE0002A53D0012A7FF446
:1047700086AFCB7943F00203022B7FF480AF00EBCE
:104780004C13D3F80C5525F07005C3F80C5576E79B
:10479000D0F810340EF10302C2F38F029BB29A429A
:1047A00004D94FF0806283691A4382611FFA8EF246
:1047B000002AB5D0D51C4FF0FF33C96803EB950331
:1047C00000F580504FEA0C32032BC5F381030FD361
:1047D000AF0827F0030400BF0F68043C17504F6870
:1047E00017508F681750CF6801F110011750F3D19F
:1047F000002B3FF495AF0F68012B17503FF490AF9B
:104800004F68022B17501CBF89681150002001B05F
:10481000F0BD00BF4B79012B7FF431AF002100EBDD
:104820004C10C8F20801C0F81015D0F8001502228B
:1048300062F39F71C0F80015002001B0F0BD0000C8
:1048400070B582B001460020C1F8000E886BDDF81B
:1048500018C040F400108863886B20F4002088633F
:10486000886B20F480208863C86BC00502D4D1F81F
:10487000000407E0D1F80004012B03D140F004004C
:1048800002E000BF20F0040040F64053C1F80004ED
:10489000C0F20303002000900098013000900098BF
:1048A000984249D8086900281BD40098013000902C
:1048B0000098984240D80869002812D40098013026
:1048C00000900098984237D80869002809D40098C9
:1048D00001300090009898422ED80869B0F1FF3F4F
:1048E000DADC002000904FF4846008610098013009
:1048F0000090009898421FD8086980061AD5009841
:10490000013000900098984216D80869800611D5A9
:10491000009801300090009898420DD808698006F0
:1049200008D50098013000900098984204D8086992
:104930008006DBD4002000E0012000250195019DC8
:1049400001350195019D9D4248D80D69002D1BD46C
:10495000019D01350195019D9D423FD80D69002DB6
:1049600012D4019D01350195019D9D4236D80D69F6
:10497000002D09D4019D01350195019D9D422DD841
:104980000D69B5F1FF3FDADC0025019510250D61B9
:10499000019D01350195019D9D421FD80D69ED06D0
:1049A0001DD5019D01350195019D9D4216D80D69CA
:1049B000ED0614D5019D01350195019D9D420DD84F
:1049C0000D69ED060BD5019D01350195019D9D42B7
:1049D00004D80D69ED06DBD401E000BF0120D2B39D
:1049E000541E02F0030E0023032C4FF000041AD3D0
:1049F00022F003024FF0FF35002400BF0E19043AE5
:104A000004F18004C6F80855C6F80C35C6F82855D8
:104A1000C6F82C35C6F84855C6F84C35C6F8685562
:104A2000C6F86C35EAD1BEF1000F14D001F5A062D2
:104A300022444FF0FF340023BEF1010F9460D36095
:104A400009D0BEF1020F9462D36204D04FF0FF335D
:104A500093640023D36400228A614FF0FF324A61DD
:104A6000CA6B40F2002312F4807240F200364FF419
:104A70000072C0F20013C0F2E00608BF802204BF3B
:104A80008023C0F2600304BFE026C0F24006BCF100
:104A9000000F4A628B62C1F8006103D18A6942F05B
:104AA00010028A618A690823CAF220331A438A6194
:104AB00002B070BDD0F8002401F0030322F003021D
:104AC000C0F80024D0F80024012942EA0302C0F80B
:104AD000002405D0022907D141F2707102E000BF25
:104AE0004BF68031C0F8041400207047416980699A
:104AF0000840704710B5930802F0030E2CD05A1EE0
:104B0000032A03F0030C0FD323F003034FF4805266
:104B10008458043B0C6084584C6084588C608458E2
:104B2000CC6001F11001F3D1BCF1000F14D04FF4AF
:104B3000805284580B46BCF1010F43F8044B05D159
:104B40001946BEF1000F0AD11EE000BF8258BCF129
:104B5000020F4A601AD10831BEF1000F14D04FF491
:104B6000805280580A46BEF1010F02F8010B04BFC3
:104B7000104610BD020ABEF1020F4A7004BF881C25
:104B800010BD000C88700331084610BD4FF48052F0
:104B900082588A600C31BEF1000FE0D1F4E70000CA
:104BA00010B582B0044600200190D4F84004019072
:104BB000019820F02E000190019840F48070C4F814
:104BC00040046420FBF788FD019820F48070C4F84D
:104BD00040040A20FBF780FD002002B010BD000059
:104BE000B0B50446C06820F0C040E06091B1012932
:104BF00026D1E068002540F00050E0600120FBF77E
:104C00006BFD6069C00705F1010014D1312D054627
:104C1000F4D310E0E068002540F08040E06000BF81
:104C20000120FBF759FD6069C00705F1010002D0C2
:104C3000312D0546F4D33238B0FA80F04009B0BDCA
:104C40000120B0BD83B00146002000908B6840F683
:104C50004052C0F2030223F001038B6001900198DF
:104C600001300190019890424AD8086900281BD46D
:104C70000198013001900198904241D808690028BC
:104C800012D40198013001900198904238D80869F7
:104C9000002809D4019801300190019890422FD842
:104CA0000869B0F1FF3FDADC002001904FF4846026
:104CB00008610198013001900198904220D808695C
:104CC00080061AD50198013001900198904217D8BA
:104CD0000869800611D50198013001900198904231
:104CE0000ED80869800608D5019801300190019816
:104CF000904205D808698006DBD4002001E000BF9F
:104D0000012000230293029B01330293029B9342F2
:104D100048D80B69002B1BD4029B01330293029BE2
:104D200093423FD80B69002B12D4029B01330293AC
:104D3000029B934236D80B69002B09D4029B0133A6
:104D40000293029B93422DD80B69B3F1FF3FDADC4B
:104D50000023029310230B61029B01330293029BF9
:104D600093421FD80B69DB061DD5029B01330293CA
:104D7000029B934216D80B69DB0614D5029B0133C4
:104D80000293029B93420DD80B69DB060BD5029B65
:104D900001330293029B934204D80B69DB06DBD4F8
:104DA00001E000BF0120D1F8003547F6FF72C3F6DD
:104DB000FF72134003F18043C1F80035D1F820356C
:104DC000134003F18043C1F82035D1F8403513403A
:104DD00003F18043C1F84035D1F86035134003F149
:104DE0008043C1F86035D1F88035134003F180432A
:104DF000C1F88035D1F8A035134003F18043C1F8E4
:104E0000A035D1F8C035134003F18043C1F8C03557
:104E1000D1F8E035134003F18043C1F8E035D1F813
:104E20000036134003F18043C1F80036D1F8203634
:104E3000134003F18043C1F82036D1F840361340C7
:104E400003F18043C1F84036D1F86036134003F1D6
:104E50008043C1F86036D1F88036134003F18043B7
:104E6000C1F88036D1F8A036134003F18043C1F871
:104E7000A036D1F8C036134003F18043C1F8C036E4
:104E8000D1F8E036134003F18043C1F8E036D1F8A1
:104E90000035134003F14043C1F80035009B013356
:104EA0000093009BB3F57A7F27D8D1F80035B3F192
:104EB000FF3F22DC009B01330093009BB3F57A7F18
:104EC0001BD8D1F80035B3F1FF3F16DC009B01334E
:104ED0000093009BB3F57A7F0FD8D1F80035B3F17A
:104EE000FF3F0ADC009B01330093009BB3F57A7F00
:104EF00003D8D1F80035002BD0D4D1F82035134099
:104F000003F14043C1F82035009B01330093009B1F
:104F1000B3F57A7F27D8D1F82035B3F1FF3F22DCF3
:104F2000009B01330093009BB3F57A7F1BD8D1F827
:104F30002035B3F1FF3F16DC009B01330093009B4B
:104F4000B3F57A7F0FD8D1F82035B3F1FF3F0ADCF3
:104F5000009B01330093009BB3F57A7F03D8D1F80F
:104F60002035002BD0D4D1F84035134003F1404315
:104F7000C1F84035009B01330093009BB3F57A7F65
:104F800027D8D1F84035B3F1FF3F22DC009B013335
:104F90000093009BB3F57A7F1BD8D1F84035B3F16D
:104FA000FF3F16DC009B01330093009BB3F57A7F33
:104FB0000FD8D1F84035B3F1FF3F0ADC009B013335
:104FC0000093009BB3F57A7F03D8D1F84035002BCE
:104FD000D0D4D1F86035134003F14043C1F86035B7
:104FE000009B01330093009BB3F57A7F27D8D1F85B
:104FF0006035B3F1FF3F22DC009B01330093009B3F
:10500000B3F57A7F1BD8D1F86035B3F1FF3F16DCDA
:10501000009B01330093009BB3F57A7F0FD8D1F842
:105020006035B3F1FF3F0ADC009B01330093009B26
:10503000B3F57A7F03D8D1F86035002BD0D4D1F8FE
:105040008035134003F14043C1F88035009B0133A4
:105050000093009BB3F57A7F27D8D1F88035B3F160
:10506000FF3F22DC009B01330093009BB3F57A7F66
:105070001BD8D1F88035B3F1FF3F16DC009B01331C
:105080000093009BB3F57A7F0FD8D1F88035B3F148
:10509000FF3F0ADC009B01330093009BB3F57A7F4E
:1050A00003D8D1F88035002BD0D4D1F8A0351340E7
:1050B00003F14043C1F8A035009B01330093009BEE
:1050C000B3F57A7F27D8D1F8A035B3F1FF3F22DCC2
:1050D000009B01330093009BB3F57A7F1BD8D1F876
:1050E000A035B3F1FF3F16DC009B01330093009B1A
:1050F000B3F57A7F0FD8D1F8A035B3F1FF3F0ADCC2
:10510000009B01330093009BB3F57A7F03D8D1F85D
:10511000A035002BD0D4D1F8C035134003F1404363
:10512000C1F8C035009B01330093009BB3F57A7F33
:1051300027D8D1F8C035B3F1FF3F22DC009B013303
:105140000093009BB3F57A7F1BD8D1F8C035B3F13B
:10515000FF3F16DC009B01330093009BB3F57A7F81
:105160000FD8D1F8C035B3F1FF3F0ADC009B013303
:105170000093009BB3F57A7F03D8D1F8C035002B9C
:10518000D0D4D1F8E035134003F14043C1F8E03505
:10519000009B01330093009BB3F57A7F27D8D1F8A9
:1051A000E035B3F1FF3F22DC009B01330093009B0D
:1051B000B3F57A7F1BD8D1F8E035B3F1FF3F16DCA9
:1051C000009B01330093009BB3F57A7F0FD8D1F891
:1051D000E035B3F1FF3F0ADC009B01330093009BF5
:1051E000B3F57A7F03D8D1F8E035002BD0D4D1F8CD
:1051F0000036134003F14043C1F80036009B0133F1
:105200000093009BB3F57A7F27D8D1F80036B3F12D
:10521000FF3F22DC009B01330093009BB3F57A7FB4
:105220001BD8D1F80036B3F1FF3F16DC009B0133E9
:105230000093009BB3F57A7F0FD8D1F80036B3F115
:10524000FF3F0ADC009B01330093009BB3F57A7F9C
:1052500003D8D1F80036002BD0D4D1F82036134033
:1052600003F14043C1F82036009B01330093009BBB
:10527000B3F57A7F27D8D1F82036B3F1FF3F22DC8F
:10528000009B01330093009BB3F57A7F1BD8D1F8C4
:105290002036B3F1FF3F16DC009B01330093009BE7
:1052A000B3F57A7F0FD8D1F82036B3F1FF3F0ADC8F
:1052B000009B01330093009BB3F57A7F03D8D1F8AC
:1052C0002036002BD0D4D1F84036134003F14043B0
:1052D000C1F84036009B01330093009BB3F57A7F01
:1052E00027D8D1F84036B3F1FF3F22DC009B0133D1
:1052F0000093009BB3F57A7F1BD8D1F84036B3F109
:10530000FF3F16DC009B01330093009BB3F57A7FCF
:105310000FD8D1F84036B3F1FF3F0ADC009B0133D0
:105320000093009BB3F57A7F03D8D1F84036002B69
:10533000D0D4D1F86036134003F14043C1F8603651
:10534000009B01330093009BB3F57A7F27D8D1F8F7
:105350006036B3F1FF3F22DC009B01330093009BDA
:10536000B3F57A7F1BD8D1F86036B3F1FF3F16DC76
:10537000009B01330093009BB3F57A7F0FD8D1F8DF
:105380006036B3F1FF3F0ADC009B01330093009BC2
:10539000B3F57A7F03D8D1F86036002BD0D4D1F89A
:1053A0008036134003F14043C1F88036009B01333F
:1053B0000093009BB3F57A7F27D8D1F88036B3F1FC
:1053C000FF3F22DC009B01330093009BB3F57A7F03
:1053D0001BD8D1F88036B3F1FF3F16DC009B0133B8
:1053E0000093009BB3F57A7F0FD8D1F88036B3F1E4
:1053F000FF3F0ADC009B01330093009BB3F57A7FEB
:1054000003D8D1F88036002BD0D4D1F8A036134081
:1054100003F14043C1F8A036009B01330093009B89
:10542000B3F57A7F27D8D1F8A036B3F1FF3F22DC5D
:10543000009B01330093009BB3F57A7F1BD8D1F812
:10544000A036B3F1FF3F16DC009B01330093009BB5
:10545000B3F57A7F0FD8D1F8A036B3F1FF3F0ADC5D
:10546000009B01330093009BB3F57A7F03D8D1F8FA
:10547000A036002BD0D4D1F8C036134003F14043FE
:10548000C1F8C036009B01330093009BB3F57A7FCF
:1054900027D8D1F8C036B3F1FF3F22DC009B01339F
:1054A0000093009BB3F57A7F1BD8D1F8C036B3F1D7
:1054B000FF3F16DC009B01330093009BB3F57A7F1E
:1054C0000FD8D1F8C036B3F1FF3F0ADC009B01339F
:1054D0000093009BB3F57A7F03D8D1F8C036002B38
:1054E000D0D4D1F8E0361A4002F14042C1F8E026AB
:1054F000009A01320092009AB2F57A7F27D8D1F84B
:10550000E026B2F1FF3F22DC009A01320092009ABD
:10551000B2F57A7F1BD8D1F8E026B2F1FF3F16DC56
:10552000009A01320092009AB2F57A7F0FD8D1F832
:10553000E026B2F1FF3F0ADC009A01320092009AA5
:10554000B2F57A7F03D8D1F8E026002AD0D44FF004
:10555000FF32C1F814244A618A6842F001028A606D
:1055600003B07047FEE7000088B0FCF7FBF9FDF7D9
:10557000F9F9002443F6300005940094C4F20200C7
:10558000016840F6000741F0100101600168C4F2B3
:10559000020701F01001009100990094016807F5DD
:1055A000006941F0040101600168002201F004017A
:1055B00000910099009401684FF0080841F08001C3
:1055C0000160016801F08001009100990094016878
:1055D00041F001010160016801F0010100910099B1
:1055E0000094016841F002010160016801F00201CC
:1055F000009100990094016841F008010160006881
:10560000082100F00800009000984846FBF74CF98C
:105610003846012101224FF0010AFBF745F907F551
:10562000806528464FF210010022FBF73DF901AEDC
:1056300048463146CDE9018ACDE90344FBF760F8DD
:1056400038463146CDE901AACDE90344FBF758F8C5
:10565000CDF804804FF002084FF0050B3846314674
:10566000CDE902840494CDF814B0FBF749F84FF467
:105670009010CDE90204A7F500603146CDF804A0F2
:10568000FBF73EF80420A7F58067CDE90104384612
:1056900031460394FBF734F84FF48060CDE90108FC
:1056A00038463146CDE90344CDF814B0FBF728F86D
:1056B0004FF21000CDE9010A28463146CDE90344F6
:1056C000FBF71EF82020CDE901042846314603945B
:1056D000FBF716F84FF49010CDE902044846314626
:1056E00043F60046CDF80480C4F20006FBF708F844
:1056F00040F2707006F5C051C2F2000048F2A0629C
:105700004FF48043C0F2010280E81600C0E9034371
:10571000C0E90544C0E90744FBF7CAFD20B1EFF337
:10572000108072B6FEE700BF40F2C470C2F2000003
:105730004FF400754FF4FA51C0E90065C0E9024426
:10574000C0E90451C0E906440462FBF7E3FF28B155
:10575000EFF3108072B600BFFEE700BF40F60C000A
:1057600006F57441C2F200004FF48272002480E812
:1057700016000A21C0E90344C0E90545C461C0E937
:105780000844C0E90A41FCF733FD28B1EFF310806B
:1057900072B600BFFEE700BFFDF7A0F840F6640058
:1057A00006F58431C2F2000044F61F63CDE90644D9
:1057B000CDE90444532280E81600C0E90334846133
:1057C000FCF7BAFD20B1EFF3108072B6FEE700BF20
:1057D00040F66400C2F20000FCF736FF20B1EFF3A0
:1057E000108072B6FEE700BF6020019040F2DC50EE
:1057F000029000200390059040F66400C2F2000081
:1058000001A90022FCF70EFE20B1EFF3108072B662
:10581000FEE700BF40F66404C2F200042046FCF735
:10582000D5FD20460021FCF73FFF44F23444C4F28A
:10583000010440F26C7500BF2560FDF77BF8FBE7C3
:10584000F1EE100A4FF6FF71C0F2C03120EA0100FC
:1058500040F04070E1EE100A7047000000000000C8
:10586000000001020304060708090000000001020D
:10587000030443444300000098580008000000203F
:1058800030000000C4010008C858000830000020A3
:10589000800E0000E0010008010000001000000080
:1058A0007258000802000000392D0008D52C0008AD
:1058B000952C00089D2E00084D30000800000000C7
:0858C0000024F40000000000C8
:040000050800018965
:00000001FF
